:100000000C9439030C9480030C9480030C948003AB
:100010000C9480030C9480030C9480030C94800354
:100020000C9480030C9480030C940D290C94DF290C
:100030000C9441200C9480030C9480030C94800356
:100040000C9480030C9480030C9480030C94800324
:100050000C9480030C94A9200C9480030C948003CE
:100060000C9480030C9480030C9480030C94800304
:100070000C9480030C9480030C9480030C948003F4
:100080000C9480030C9480030C9480030C948003E4
:100090000C9480030C9480030C9480030C948003D4
:1000A0000C9480030C9480030C948003500E530E28
:1000B0005B0E600E650E6A0E6F0E740E790E7E0E6C
:1000C000830E880E8A0E8D0E900E930E960E990E4C
:1000D0009B0EA00E8B158B15BD15BD150A162A1685
:1000E000AF17AF176C1609171A171A177B17841753
:1000F000AF17A81731183118431843183A18431886
:1001000043184318311831183F18431843183F1843
:100110004C2A732A652B732A652BBF2AE22A652B8A
:10012000382B472B35001E001F0020002100220025
:10013000230024002500260027002D002E002A0081
:100140002A002B00000014001A00080015001700F8
:100150001C0018000C00120013002F0030003100AA
:100160000151000004001600070009000A000B00FE
:100170000D000E000F003300340028000000E100E5
:1001800000001D001B0006001900050011001000F2
:10019000360037003800E10052003900E000E2008C
:1001A0000000E3002C0000002C0000002C000000E8
:1001B000E7000251500051004F0029003A003B0077
:1001C0003C003D003E003F00400041004200430033
:1001D000440045004C004C000000000000000000FE
:1001E00000000000000000000000520000000000BD
:1001F00000000000000001000000000000000000FE
:10020000000000000000500051004F0000000000FE
:1002100000000000010000000000000000000000DD
:1002200000000000000000000000000001004B0082
:1002300000000100010000000100000000000000BB
:10024000000000000000010000004A004E004D00C8
:10025000000047004800C25CC35CBD5CBE5CAC00F3
:10026000AE00AB00A800AA00A9000000000000003A
:10027000000000000000000000000000000000007E
:10028000000000000000000000000000000000006E
:10029000000000000000000000000000000000005E
:1002A000000000000000000000000100000000004D
:1002B000000000000000000000000000000000003E
:1002C00000000100A9000000010001000000010081
:1002D000AE000000AE000000AE0000000000010013
:1002E000AC00AA00AB0000047F3F1F6432146432EC
:1002F00014783C1E1E140A052223252628292A2CA0
:100300002D2F3032333536383A3B3D3E404243455F
:1003100047494A4C4E5051535557595A5C5E60629A
:10032000646668696B6D6F71737577797B7D7F81AA
:10033000838587898A8C8E90929496989A9C9E9FAA
:10034000A1A3A5A7A8AAACAEAFB1B3B4B6B8B9BBC8
:10035000BCBEBFC1C2C3C5C6C7C9CACBCCCDCED037
:10036000D1D2D2D3D4D5D6D7D7D8D9D9DADADBDB24
:10037000DBDCDCDCDCDCDDDDDDDDDCDCDCDCDCDBBB
:10038000DBDBDADAD9D9D8D7D7D6D5D4D3D2D2D104
:10039000D0CECDCCCBCAC9C7C6C5C3C2C1BFBEBCF7
:1003A000BBB9B8B6B4B3B1AFAEACAAA8A7A5A3A168
:1003B0009F9E9C9A98969492908E8C8A898785832A
:1003C000817F7D7B79777573716F6D6B696866640A
:1003D00062605E5C5A5957555351504E4C4A4947DA
:1003E000454342403E3D3B3A3836353332302F2D7F
:1003F0002C2A292826252322FFAA7F554000010107
:1004000001010101010101020202020202020202D3
:1004100003030303030303030404040404040405A3
:100420000505050506060606060707070707080867
:100430000808090909090A0A0A0B0B0B0C0C0C0D18
:100440000D0D0E0E0E0F0F0F1010111111121213B1
:10045000131414151516161717181819191A1A1B2C
:100460001B1C1D1D1E1E1F2020212222232424258B
:100470002626272829292A2B2C2D2D2E2F303132C4
:1004800032333435363738393A3B3C3D3E3F4041D4
:1004900042434445464748494A4C4D4E4F505153BC
:1004A00054555658595A5B5D5E5F61626465666873
:1004B000696B6C6D6F7072737577787A7B7D7E80F7
:1004C00082838587888A8C8E8F91939596989A9C43
:1004D0009EA0A2A3A5A7A9ABADAFB1B3B5B7BABC57
:1004E000BEC0C2C4C6C9CBCDCFD1D4D6D8DBDDDF28
:1004F000E2E4E7E9EBEEF0F3F5F8FAFDFF04033090
:100500000000000A0344005A0036003000000010CA
:10051000034B0042004400460061006E007300007F
:10052000000403090409023B00020100A0FA0904C7
:100530000000010301010009211101000122400016
:100540000705810308000A090401000103000000F7
:1005500009211101000122C0000705820320000AC1
:1005600012011001000000085A446022010001023B
:10057000030105010902A10185020901A100050984
:1005800019012905150025019505750181029501BF
:10059000750381010501093009311581257F950217
:1005A0007508810609381581257F95017508810632
:1005B000050C0A38021581257F950175088106C052
:1005C000C005010980A10185031A81002A83001654
:1005D0000100260300950175108100C0050C09017A
:1005E000A10185041A01002A9C02160100269C0222
:1005F000950175108100C005010906A10185050559
:100600000719E029E7150025019508750181020504
:1006100007190029EF1500250195F07501810205E4
:100620000819012905950575019102950175039138
:1006300001C005010906A101050719E029E7150018
:10064000250195087501810295017508810105074D
:10065000190029FF150026FF009506750881000581
:1006600008190129059505750191029501750391F8
:1006700001C011241FBECFEFDAE0DEBFCDBF04B64C
:1006800003FE27C08091AA029091AB02A091AC0218
:10069000B091AD028730904BA740B04BD1F410928F
:1006A000AA021092AB021092AC021092AD0214BEDC
:1006B00084B7877F84BF0FB6F894A89580916000B7
:1006C000886180936000109260000FBEE0E0F8E364
:1006D000099511E0A0E0B1E0E4EDF8E502C0059075
:1006E0000D92AC35B107D9F722E0ACE5B1E001C01D
:1006F0001D92AA3AB207E1F70E9436260C94682CA4
:100700000C9400000C942307229A2A9A08950E94C0
:1007100022070C94840381FF02C02A9801C02A9A00
:100720000C94DC0381E0089581E008950C94940317
:100730001F93CF93DF9300D000D01F92CDB7DEB7C9
:1007400049835A832091820189819A81211112C0A3
:10075000662349F00E94561D182F682F89819A81BF
:100760000E94FB1C03C00E942A1D182F69817A81F8
:10077000812F04C00E94561D69817A810F900F90CD
:100780000F900F900F90DF91CF911F910C94400428
:10079000FC01408151816281738184810C949803B2
:1007A0000E94861E811102C00E94391F0E94F20F12
:1007B0000C9487030C948203089581E008950C94AF
:1007C000DD03CF93C82F0E948B038C2F0E94DF0381
:1007D000CF91089508950E9421180E94EA032FEFF7
:1007E00084E39CE0215080409040E1F700C000008D
:1007F0000C94CF200F931F93CF93DF93EC010E94B3
:10080000C8038C01BE010E949603882379F1BE01C2
:10081000C8010E94A610882349F1BE01C8010E94A8
:10082000E710882319F1BE01C8010E941212882323
:10083000E9F0BE01C8010E94390E8823B9F08A810F
:10084000882369F001158CE5180731F00E3D1C4531
:1008500031F40E94391F0AC00E94EB0307C0CE0189
:10086000DF91CF911F910F910C94920380E0DF9163
:10087000CF911F910F91089580E090E00895089521
:100880009FE0799FF00111249BE4899FE00DF11D09
:100890001124E60FF11DEE0FFF1FEC5DFE4F859159
:1008A00094910895880F991FFC01EA51FD4F85919D
:1008B00094910895CF93DF930E9440040E944B06C9
:1008C000EC01811521E5920708F042C0811560E531
:1008D000960708F02FC1883E910500F5803E9105EE
:1008E00008F0D5C1883A910570F4853A910508F071
:1008F000A4C08130910509F4CAC108F47BC10497F2
:1009000008F0C5C177C18F3B910508F4A1C0803CB8
:10091000910508F46FC1805C9109FBC0C11580E3AB
:10092000D80780F4C11590E2D90708F0F0C0C03FA5
:10093000D10508F45FC1CF3FD10511F008F0A7C180
:10094000D065A5C1C11520E4D20708F0F0C0E5C00C
:10095000811569E5960760F5C11588E5D80708F0A7
:1009600035C1C11594E5D90778F4C11523E5D2073F
:1009700008F011C1C11562E5D60708F0F6C0DC2FFA
:10098000CC27C16FD06A83C1C11585E5D80708F4AB
:1009900018C1C11596E5D90708F02CC18C2F0E940B
:1009A000DF068F71C82FD0E0DC2FCC27D0626FC15B
:1009B0008D3B2CE5920709F414C1E0F4CB3B8CE5A8
:1009C000D80709F408C108F009C1C1152AE5D20702
:1009D00008F010C18C2F8F700E94DF0694E0D6952E
:1009E000C7959A95E1F7CF70D0E0DC2FCC27D0697E
:1009F000C82B4DC1803C9C4509F4F9C0C13C8CE535
:100A0000D80760F4CE3B9CE5D90709F4EDC0CF3B95
:100A1000DC4509F0EFC0C0E0D2ED39C1CE019056FF
:100A20008115904208F0E6C08D2F8F710E94DF067D
:100A3000DD27D0628F71D82B2AC1853A910509F440
:100A4000DCC0863A910509F0DBC0C2E8D0E41FC1E2
:100A5000883A910509F4D7C0893A910509F4D6C0BE
:100A60008A3A910509F4D5C08B3A910509F4D4C0AE
:100A70008C3A910509F4D3C08B3B910509F4D2C09F
:100A80008C3B910509F4D1C08D3A910509F4D0C091
:100A9000803B910509F4CFC08E3A910509F4CEC090
:100AA0008F3A910509F4CDC0813B910509F4CCC082
:100AB000823B910509F4CBC0833B910509F4CAC080
:100AC000843B910509F4C9C0853B910509F4C8C070
:100AD000863B910509F4C7C0873B910509F4C6C060
:100AE000883B910509F4C5C0893B910509F4C4C050
:100AF0008D3B910509F4C3C08E3B910509F4C2C03A
:100B00008A3B910509F4C1C0C0E0D4E4C0C0CE0165
:100B10009F700E945204EC01BAC0CE019927D3FF06
:100B200003C0EC01D86CB3C0EC01D06CB0C0DF7076
:100B3000D06AADC0837021E030E002C0220F331FC5
:100B40008A95E2F73C68CE0174E0969587957A9590
:100B5000E1F78370382BCF70C695C69580E2C89FA9
:100B6000E0011124C22BD32B92C04C2F4695469501
:100B700090E2499FA0011124C370DD2721E030E0FD
:100B8000C90102C0880F991FCA95E2F7EC01C42B76
:100B9000D52BDC687CC04C2F4695469580E2489F5B
:100BA000A0011124C370DD2721E030E0C90102C09B
:100BB000880F991FCA95E2F7EC01C42BD52BDA6890
:100BC00066C0DC2FCC27C46FD06A61C0DC2FCC2775
:100BD000C06FD06A5CC0C0E0D4ED59C0C0E0D5EDB4
:100BE00056C0C0E0D1ED53C0C0E0D0ED50C0C0E071
:100BF000D3ED4DC0C0E0D0E04AC0C1E8D0E447C06A
:100C0000C3E8D0E444C0C2EED4E441C0C9EED4E4A9
:100C10003EC0CAEED4E43BC0C5EBD4E438C0C6EB5A
:100C2000D4E435C0C3EBD4E432C0C4EBD4E42FC069
:100C3000C7EBD4E42CC0CCECD4E429C0CDECD4E494
:100C400026C0C3E8D5E423C0CAE8D5E420C0C2E981
:100C5000D5E41DC0C4E9D5E41AC0C1E2D6E417C08A
:100C6000C3E2D6E414C0C4E2D6E411C0C5E2D6E4BF
:100C70000EC0C6E2D6E40BC0C7E2D6E408C0CFE699
:100C8000D4E405C0C0E7D4E402C0CAE2D6E4CE0191
:100C9000DF91CF9108958238910569F1B0F48133E5
:100CA000910509F46DC048F48932910509F463C0D7
:100CB0008A32910509F469C008958533910509F4D4
:100CC00055C089339105B9F00895833E910569F1C6
:100CD00038F4803E9105B1F0823E910509F1089506
:100CE000863E9105A9F1873E9105B9F1843E9105B3
:100CF00009F064C023C020919B0220FD4FC021FD5C
:100D00004DC0089580919B0280FD44C080919C025B
:100D100080FF44C080919B0284FD42C083EE4DC0A1
:100D200080919B0282FF38C0F5CF80919B0282FDAB
:100D300033C080919C0280FD31C0ECCF80919C0239
:100D400081FF32C080919B0284FD2AC087EE35C0AE
:100D500080919B0283FF26C0F5CF80919B0283FD8B
:100D600021C080919C0281FD1FC0ECCF80919B022D
:100D700085FD1CC01DC080919B0285FD19C016C059
:100D800080919B0286FD16C017C080919B0286FD54
:100D900013C010C089E311C082EE0FC080EE0DC0F9
:100DA00080E00BC086EE09C084EE07C089E205C072
:100DB00085E303C08AE201C081E390E00895909149
:100DC0009B0292FF0DC0282F2871283019F4877FCD
:100DD000846006C0282F2471243011F48B7F886032
:100DE00093FF0DC0282F2871283119F4877E846164
:100DF00006C0282F2471243111F48B7E8861209144
:100E00009C0220FF0DC0382F3871383019F4877FCD
:100E1000816006C0382F3171313011F48E7F8860C7
:100E200021FF0DC0282F2871283119F4877E816198
:100E300006C0282F2171213111F48E7E886194FD26
:100E4000877E089508950895E82FF0E0EE0FFF1FC4
:100E5000EB5AFD4F8081918108950895A2E3B1E09E
:100E600041E050E025E02A0F8D91E82FE295EF70E8
:100E7000F0E031A18F70BA0102C0660F771F8A952A
:100E8000E2F7CB01962F9095932391A392A1892B02
:100E900082A32A13E9CFA3E2B1E041E050E02FE0C2
:100EA0002A0F8D91E82FE295EF70F0E031A18F705D
:100EB000BA0102C0660F771F8A95E2F7CB01962F21
:100EC0009095932391A392A1892B82A32A13E9CF12
:100ED000EBE4F2E0A5E5B2E0119211921D921D92B1
:100EE00072E0E535F707C1F785E00E9410080C9421
:100EF000D0035F926F927F928F929F92AF92BF9238
:100F0000CF92DF92EF92FF920F931F93CF93DF93D5
:100F100002E311E0ABE4B2E0612CEE24E394F12CA7
:100F20005D018D909C90119711961C921E92E80184
:100F300089918E01E82FE295EF70F0E091A18F701A
:100F4000A70101C0440F8A95EAF7892F842B81A35A
:100F500082A1542E5094852182A3D0EADA95F1F72C
:100F600083E2C82E81E0D82E80E090E0E6017990FF
:100F70006E01272D22952F7030E0E90168A12D9197
:100F80003C91119770E0D72DDF7002C07595679581
:100F9000DA95E2F760FD08C0B701082E02C0660FBF
:100FA000771F0A94E2F702C060E070E0262B372B2F
:100FB00011963C932E9301968F309105B9F681A13D
:100FC000D52DD823D1A382A1482B42A3129681E02C
:100FD000F501208131818216930609F480E0682AA8
:100FE000F2E0A535BF0709F09BCF262D45E065E56A
:100FF00072E08BE492E00E9411080E94DA03862DD1
:10100000DF91CF911F910F91FF90EF90DF90CF90E4
:10101000BF90AF909F908F907F906F905F9008955A
:101020000895FF920F931F93CF93DF93F82E092F0C
:10103000162FD72FC42F222349F081E080935E0121
:101040000E94732090935D0180935C0180915E010A
:101050008823D9F080915C0190915D010E947F20EE
:10106000069798F0EF2DF02FA12FBD2F80E090E094
:101070004C2F50E08417950734F4219131912D9332
:101080003D930196F7CF10925E01DF91CF911F91B2
:101090000F91FF900895AF92BF92CF92DF92FF928F
:1010A0000F931F93CF93DF93D62E372FE82FF0E0C7
:1010B000711106C0E350FC4F6491762F862F75C0E6
:1010C000C72FD0E0E350FC4F2491F22E022F10E006
:1010D00046E0649FC0011124EFEFF0E0BF010E94E1
:1010E000A92BAB016BEA6403C001659F900D11242D
:1010F0008D0D911D8D0D911D982F990F890FDF0179
:10110000AC1BBD0B0A9FB0010B9F700D1A9F700D99
:101110001124972F839FD0011124AB2FBB276F0180
:10112000CA1ADB0A0C9DD0010D9DB00D1C9DB00D9F
:1011300011245F01A81AB108AC9E6001AD9ED00CCD
:10114000BC9ED00C1124CD2DDD27EC1BFD0B0E9F7A
:10115000E0010F9FD00D1E9FD00D1124ED2F4230C6
:10116000510591F04CF441155105E1F04130510524
:10117000B9F4E22F2B2F16C04430510569F044F02A
:101180004630510579F00CC0E22F272F9D2F0AC061
:10119000272F9F2DEB2F06C0E72F922F2D2F02C058
:1011A000E72F9B2F6E2F722F892FDF91CF911F91E9
:1011B0000F91FF90DF90CF90BF90AF90089508956A
:1011C000CF93DF93762FE901682F842F0E944B087D
:1011D000798368838A83DF91CF91089580915F023C
:1011E000282F269530E02115310519F48170826091
:1011F00005C02532310524F08170886480935F0238
:10120000089588E090E00C94282CCF93DF9300D0D1
:1012100000D0CDB7DEB7AB01BC0149835A836B83E5
:101220007C830E94EE0849815A816B817C8188E031
:1012300090E00F900F900F900F90DF91CF910C9452
:10124000462CEFE5F2E083E0808311828FEF82830A
:101250008383148260817181828193810C9405095A
:1012600080915F0280FF02C08695089580E0089516
:1012700080916302833018F48F5F809363026091E2
:101280005F027091600280916102909162020C9401
:10129000050980916302882319F0815080936302CD
:1012A00060915F0270916002809161029091620290
:1012B0000C9405096091040170E080915F0280FF49
:1012C0000AC08091630123E0829FC00111248C59E0
:1012D0009D4F0C9436108091620190910301891703
:1012E00080F7E82FF0E09F01220F331FE20FF31F7A
:1012F000EC59FD4F1182108212828F5FF0CF9091D6
:101300005F0290FF16C09091620120910301921735
:1013100070F4E92FF0E0DF01AA0FBB1FEA0FFB1FFB
:10132000EC59FD4F8183608342839F5FF0CF0C9423
:101330005A090895CF93DF9300D01F92CDB7DEB73F
:1013400090915F0290FF0AC09E012F5F3F4F0E9465
:10135000E0084B8169818A810E947F090F900F907C
:101360000F90DF91CF910895CF93DF93EC01EC8143
:10137000F0E0E850FD4F4491EFE5F2E062818181B9
:101380000E949A098C818F5F8C83DF91CF910895A1
:10139000CF93DF93EC01EFE5F2E0438162818C8132
:1013A0000E949A098C818F5F8C83DF91CF91089581
:1013B0000F931F93CF93DF9300D01F92CDB7DEB76B
:1013C0008C0180915F0181110AC09E012F5F3F4F08
:1013D0004FEF6FEF0E94E0088A8180935F01F80170
:1013E0008481813051F028F0823061F440915F01B6
:1013F0000AC080915F0140E007C060915F0140E05A
:1014000080E003C040E080E060E00E947F09F801D6
:10141000248130E0C901019663E070E00E94BD2B99
:1014200084830F900F900F90DF91CF911F910F91B8
:101430000895AF92BF92CF92DF92EF92FF920F93F7
:101440001F93CF93DF9300D01F92CDB7DEB7182F35
:10145000F62E042FE22E90915F0290FF6EC0E92FCE
:10146000E695AE2FB0E0A95CBE4F8C9180936B01E6
:101470009E7F923061F49E012F5F3F4F812F0E942B
:10148000E0084B8169818A810E947F0944C08230D3
:1014900019F4009162023FC0863019F41091600285
:1014A0003AC08930D9F38931B1F5E9518E2F817075
:1014B000D82EE695F0E0E850FC4FA590B490C12CF2
:1014C000BB2460910201C61620F5EC2DF0E0EA9DE8
:1014D000C001EB9D900DFA9D900D112470E00E94CB
:1014E000A92B812FD11002C0860F01C0861B9091BD
:1014F0006201E90FF11D9F01220F331FE20FF31F5D
:101500009F012C593D4F402F6F2D0E94E008C3943E
:10151000D8CF0E945A0910936002F09261020093A2
:101520006202EE2051F060915F0270916002809142
:101530006102909162020E9405090F900F900F9036
:10154000DF91CF911F910F91FF90EF90DF90CF909F
:10155000BF90AF900895EFE5F2E09181282F43818D
:10156000628188E0890F0C94190A81E00C94AB0A1F
:10157000EFE5F2E09181282F4381628188EF890FA6
:101580000C94190A81E00C94B80AEFE5F2E062814C
:1015900028E0620F08F46FEF282F438181810C94BB
:1015A000190A81E00C94C50AEFE5F2E0628128E0B7
:1015B000621B08F460E0282F438181810C94190A92
:1015C00081E00C94D40AEFE5F2E0438128E0420F79
:1015D00008F44FEF282F628181810C94190A81E071
:1015E0000C94E30AEFE5F2E0438128E0421B08F4A3
:1015F00040E0282F628181810C94190A81E00C94CB
:10160000F20A20E00C94190AFF920F931F93CF93D4
:10161000DF93EC01F12C0FEF10E060910201F61660
:10162000E8F42091620130E02F0D311DC901880FCF
:10163000991F280F391F2C593D4F70E0C8010E9497
:10164000BD2B962F8C814091620260916102F99EC0
:10165000800D11240E94E008F394DFCF0E945A0904
:101660009A818C8190FF02C08F5F01C081508C8372
:10167000DF91CF911F910F91FF900895BF92CF926C
:10168000DF92EF92FF920F931F93CF93DF93FC01B2
:10169000828180FF02C00FEF01C001E010E0809165
:1016A0000201181708F040C0C12ED12C80916201B0
:1016B000E601C80FD11DCE01880F991FC80FD91F91
:1016C000CC59DD4F198218821A8234E0E32EF12CB6
:1016D000B12C809161018B0D813114F08F7005C0A8
:1016E00087FF03C090910201890F082E000C990B0F
:1016F000C816D90691F4809162028E9DA0018F9D3B
:10170000500D112455954795559547959E0160912B
:101710006102809160020E94E008B00EF1E0EF1AD1
:10172000F108B9F61F5FBBCF0E945A098091610191
:10173000013031F4811102C080910201815007C053
:1017400090E001966091020170E00E94BD2B8093B1
:101750006101DF91CF911F910F91FF90EF90DF908A
:10176000CF90BF900895CF93809162019091030133
:10177000891770F4E82FF0E09F01220F331FE20F6A
:10178000F31FEC59FD4F1182108212828F5FF0CF50
:10179000C0E060910201C617B8F5EC2FF0E070E0F0
:1017A000CF010E94BD2B40916201480F80916001E2
:1017B000082E000C990B50E0E817F907C4F02091AF
:1017C0000101022E000C330B2E173F0784F09A0103
:1017D000220F331F240F351F2C593D4F40916202B9
:1017E00060916102809160020E94E0080BC0FA01E2
:1017F000EE0FFF1F4E0F5F1FFA01EC59FD4F1182D4
:1018000010821282CF5FC5CF0E945A092091000139
:1018100080916001820F8093600190910101920F8D
:101820009093010119165CF4082E000C990B40915D
:10183000020150E041505109841795071CF0219591
:1018400020930001CF9108950F931F93CF93DF93BF
:101850008C01FC0184819581019681709927958383
:101860008483C0E0D5E580910201C817F8F4209187
:10187000620130E02C0F311DC901880F991F280F1C
:10188000391F2C593D4F4C2F4695F8018481958185
:10189000840F911D817040916202609161028D9F61
:1018A000802D11240E94E008CF5FDDCFDF91CF9122
:1018B0001F910F910C945A090F931F93CF93DF93AD
:1018C000EC0100E010E080910201282F30E00217C7
:1018D000130724F5909162019801290F311DA90188
:1018E000440F551F240F351F2C593D4F869590E00E
:1018F0004C81081719071CF4442331F002C0411130
:1019000003C04091620201C040E060916102809199
:1019100060020E94E0080F5F1F4FD5CF0E945A0956
:101920002C8130E02F5F3F4F217033272C83DF91D4
:10193000CF911F910F910895EFE5F2E080818E7FA6
:10194000808360817181828193810E940509109258
:101950006C012FEF80E792E0215080409040E1F74A
:1019600000C000000C945A09EFE5F2E080818E7F00
:10197000808310926C012FEF80E792E0215080402D
:101980009040E1F700C000000C945A0960915F029A
:10199000669570E04BE050E085E091E00E94132CEA
:1019A000892B19F481E080936C010E94732090933D
:1019B000650180936401089590915F0290FF35C0A6
:1019C0009170811102C0926006C0853210F0986457
:1019D00002C0880F982B90935F02662351F06091AC
:1019E0005F027091600280916102909162020E9498
:1019F000050960915F02669570E04BE050E085E07C
:101A000091E00E94132C892B19F010926C0102C0F6
:101A10000E94C60C81E08093670140916202609150
:101A20006102809160020C94010B0895682F9091DF
:101A30005F02969581E0890F853208F081E00C9471
:101A4000DC0C81E00C94160D682F90915F02969546
:101A50008FEF890F09F484E20C94DC0C81E00C9484
:101A6000240D61E00C94DC0CEFE5F2E080818160F4
:101A7000808386950C94310D80915F0280FD0C94DB
:101A80009C0C0C94340D60E00C94DC0C80916A0189
:101A900081112EC00E94861E811104C00E94391F30
:101AA0000E9421090E94010960935F027093600205
:101AB00080936102909362026E7F61F40E9421091B
:101AC0000E94010960935F0270936002809361023B
:101AD000909362020E94EE0810926C0180915F0266
:101AE00080FF03C086950E94430D81E080936A01C8
:101AF0000895EFE5F2E080818160808386950C9403
:101B0000430D10926C0108950F931F93CF93DF93B1
:101B100080916C01882309F48CC080916B01E09165
:101B20005F02E695E81BE0936601823049F4F0E03D
:101B3000EC50FD4FE491CE2FD0E004EB19E049C00A
:101B4000863049F4F0E0EF50FD4FE491CE2FD0E025
:101B500008EC19E03EC0893051F4E695F0E0E2511E
:101B6000FD4FE491CE2FD0E004E01BE032C08F3077
:101B700051F4E695F0E0E551FD4FE491CE2FD0E031
:101B80000EE31BE026C0853149F4F0E0E851FD4F3B
:101B9000E491CE2FD0E003EB1BE01BC0883181F035
:101BA000833239F4E6EEF2E0C591D49108ED19E004
:101BB00010C0843251F4C4EFD1E00CE51CE009C040
:101BC000C8EED3E004E21CE004C0C0EDD7E00FEDA6
:101BD00018E080916701882389F0109267010E94C4
:101BE00073209E0120953095820F931F909365017D
:101BF00080936401109269011092680180916401E0
:101C0000909165010E947F208C179D0790F0E091D4
:101C10006401F0916501CE0FDF1FD0936501C09381
:101C2000640184E691E0F801DF91CF911F910F915B
:101C30000994DF91CF911F910F910895882311F09E
:101C4000FA0101C0FB010994CF93DF93C82FD62F6F
:101C50000E9430098C1740F00E9430098D1720F443
:101C6000DF91CF910C94210D8C2FDF91CF910C94AB
:101C7000310D0F931F93CF93FB01C281CC2309F445
:101C800063C08C010E94D61D8272F801E25CFC45A3
:101C9000E431F10508F059C0EA5AFF4F0C94F32BD8
:101CA0000E943C0D06C04EE25DE061E27DE00E94D4
:101CB0001E0EC0E04AC041E25DE06EE27DE0F7CF7B
:101CC00042EC5AE065EB7AE0F2CF45EB5AE062EC89
:101CD0007AE0EDCF40EE5AE061ED7AE0E8CF41EDF9
:101CE0005AE060EE7AE0E3CF4EEF5AE06FEE7AE032
:101CF000DECF4FEE5AE06EEF7AE0D9CF49E459E0FB
:101D000068E379E0D4CF48E359E069E479E0CFCFE4
:101D100081E017C065E082E010C068E086E00DC099
:101D20006EE089E00AC064E18FE007C067E185E109
:101D300004C088E106C062E289E10E94240EB9CFA6
:101D400083E20E94310DB5CFC1E08C2FCF911F915E
:101D50000F9108950E94861E811102C00E94391FB2
:101D60000E94C11E80939402282F269526952695C1
:101D700030E02630310524F0877088628093940229
:101D80008091940280FF04C086958695869501C057
:101D900080E00C94950F20919402822F8695869571
:101DA0008695482F50E04530510554F48F5F982FA9
:101DB000990F990F990F822F8770892B8093940226
:101DC000809194028160809394020E94C51E80914C
:101DD00094028695869586950C94950F8091940231
:101DE000982F969596959695A1F0915E990F990FDB
:101DF000990F8770892B80939402887F91E009F472
:101E000090E08091940290FB80F9809394020E946C
:101E1000C51E809194028695869586950C94950FA3
:101E20008091940280FD13C0816080939402813080
:101E300019F489E080939402809194020E94C51E57
:101E4000809194028695869586950C94950F0895B9
:101E50008091940280FF08C08E7F809394020E943C
:101E6000C51E80E00C94950F08958091940280FD2A
:101E70000C94280F0C94100F90919402892F869542
:101E8000869586958F5F8F719770863038F4880FAE
:101E9000880F880F892B8093940202C0909394023C
:101EA00080919402887F91E009F490E080919402FF
:101EB00090FB80F9809394020E94C51E8091940249
:101EC0008695869586950C94950F863008F085E06A
:101ED000909194029770282F220F220F220F922B9D
:101EE00090939402987F21E009F420E0909194026D
:101EF00020FB90F9909394020C94950F0E94650F2B
:101F0000809194020C94C51EE82FE295EF70F0E0EA
:101F100032A1282F2F7081E090E001C0880F2A9510
:101F2000EAF78095832382A30895CF92DF92EF9200
:101F3000FF92863030F4811105C0909180009F7D22
:101F400004C085E090918000906290938000282FDB
:101F500030E0AFEFBFEF0E94F92B25E030E040E02A
:101F600050E00E94D12B2C3784E138074105510500
:101F700030F4C90169E070E00E94A92B29C0DA01A0
:101F8000C9018A50974DAF4FBF4F6627782F892FD1
:101F90009A2F25EF38E241E050E00E94D12B6901F1
:101FA0007A01CA01B9010E94992B9B01AC01C701BA
:101FB000B6010E94992BBB27A92F982F872F009736
:101FC00021E0A207B10511F0BC0102C06FEF7FEF65
:101FD00070938B0060938A00FF90EF90DF90CF901A
:101FE00008950895269A86E30E94840F82E28093E2
:101FF000800089E1809381008FEF9FEF90938700AD
:10200000809386000C94AA0E2EB1342F3095232392
:102010003EB1432B3FB7F894FC01680F791FE617D8
:10202000F70789F0819198E04EB9000000C087FF62
:102030002EB9880F000000C000C000C02EB900C03B
:102040009A9591F7ECCF3FBF08952DB1242B2DB970
:102050009B01220F331F620F731F0E94041087EC35
:1020600090E00197F1F700C00000089544E00C945F
:1020700025100F931F93CF93DF93C62FD42F022FDA
:10208000FC0182818823C9F060936F010E94732054
:1020900090936E0180936D0180E28C0F883008F080
:1020A00050C0C77081E001C0880FCA95EAF7DF9180
:1020B000CF911F910F910C944B1510916F01161336
:1020C00030C080916D0190916E010E947F20883C0C
:1020D000910538F5C0E2CD0F1D17B9F080E2810FF0
:1020E000883040F4177081E001C0880F1A95EAF734
:1020F0000E945215C83048F481E09D2F977001C0AE
:10210000880F9A95EAF70E944B15802F0E94381588
:10211000C830B8F4D77081E001C0880FDA95EAF7CB
:102120000AC080E28C0F883060F4C77081E001C083
:10213000880FCA95EAF7DF91CF911F910F910C9408
:102140005215DF91CF911F910F9108959C01CB0102
:10215000233F4CE53407F9F078F4283DFCE53F07D0
:10216000B9F0293D4CE5340711F1273D3C4531F5E7
:1021700026E241EE61EE1EC0253FFCE53F0799F0E7
:1021800070F0263F3C45D1F427E245EE66EE12C0E2
:1021900027E245EE0EC026E241EE60EE0BC027E2DC
:1021A00045EE64EE07C026E241EE62EE03C028E28F
:1021B00041E065EE0E94391080E00895FC018281C3
:1021C000882319F010926F01089581E00895CF934C
:1021D000DF93EC01FB018281882309F41FC1C23027
:1021E000FCE5DF0708F41BC1C6319CE5D90738F0D0
:1021F0009E012A5F3C452930310508F010C10E943C
:10220000A31E90939C0280939B02C031ECE5DE07F5
:1022100009F4C3C008F041C0C8308CE5D80709F400
:102220009AC0F0F4C430ECE5DE0709F487C068F426
:10223000C2308CE5D80709F477C0C330DC4509F01B
:10224000E3C080919B02826076C0C630ECE5DE0779
:1022500009F46EC008F07BC080919B0288606BC05F
:10226000CC308CE5D80709F485C068F4CA30ECE5B9
:10227000DE0709F474C008F079C00E94211880912B
:102280009B02806858C0CE308CE5D80709F476C030
:1022900008F07FC080919B028BC0CB3FECE5DE074E
:1022A00009F44FC018F5C3318CE5D80709F47DC097
:1022B00078F4C131ECE5DE0709F473C0C231DC45C6
:1022C00009F0A2C00E94211880919B028F7733C031
:1022D000C5318CE5D80709F472C008F486C0CA3F3E
:1022E000DC4509F091C080919C023EC0CF3FFCE5E7
:1022F000DF0709F45FC058F4CD3F9CE5D90709F426
:1023000044C008F43FC080919C0282602DC0C1305F
:10231000FDE5DF0709F475C008F45DC0C230DD4596
:1023200009F072C080E06EC080919B02816003C0A2
:1023300080919B02806180939B0266C080919B028A
:1023400011C080919C02826080939C025DC080914C
:102350009B028062F0CF80919B028064ECCF8091E1
:102360009B0288608460E7CF8160EECF80919B0202
:102370008E7FE1CF80919B028D7FDDCF80919B028C
:10238000877FD9CF80919C0218C080919C028D7F5D
:10239000DBCF80919B028F7ECECF80919B028F7D81
:1023A000CACF80919B028F7BC6CF80919B02877F93
:1023B0008B7FC1CF80919C028D7F8E7FC5CF809116
:1023C0009B0282FB222720F991E0922790FB82F961
:1023D00090FB83F9B0CF80919C02982F90959170DB
:1023E0008E7F892B90FB81F9AFCF0E9421188091BD
:1023F0009B0287FB222720F991E0922790FB87F927
:102400009ACF81E00E943B1F80919B0290919C0299
:102410000E94B41E0E94211880E001C081E0DF917B
:10242000CF910895CF93DF9386319C4541F5EB0121
:102430000E94D61D282F8A814091100150911101D0
:10244000882379F02A7A91E009F490E09093700162
:10245000911102C069E201C065E3CA010E94A51F93
:102460000AC080917001811102C069E201C065E378
:10247000CA010E94B01F0E94221E80E001C081E0BC
:10248000DF91CF910895909376018093750108951F
:10249000E0917501F0917601309721F00190F08183
:1024A000E02D099480E00895E0917501F0917601A6
:1024B000309799F020912201222359F020919B021C
:1024C00027FF07C0DC012C9111962C93119725E072
:1024D0002C930280F381E02D09940895E091750119
:1024E000F0917601309739F022E0DC012C930480E2
:1024F000F581E02D099408952091730130917401C4
:102500008217930771F09093740180937301E091A7
:102510007501F0917601309721F00680F781E02D6A
:1025200009940895209171013091720182179307E7
:1025300071F09093720180937101E0917501F091B7
:102540007601309721F00084F185E02D09940895FB
:1025500085B7806885BF85B7806885BF0895089571
:1025600008950C94B01208950C94B3120E94A8120E
:102570000E94AF120C94B11281E008950E946A206B
:102580000E942E070E943F210E94AA0E0E94460D23
:102590000C94B4127F928F929F92AF92BF92CF927F
:1025A000DF92EF92FF920F931F93CF93DF93CDB7FC
:1025B000DEB72A970FB6F894DEBF0FBECDBF0E94DC
:1025C00079070E94BC12811111C08FEF89838A8321
:1025D0001B820E9473208160782F9D838C834981A8
:1025E0005A816B818D810E947E134FC038E7832E04
:1025F00031E0932E00E010E0702E802F0E9424071F
:102600006C01F401A190B1904F01A826B926A11444
:10261000B10431F40F5F1F4F0530110569F7D5CFB5
:1026200080911A0281FD0E942D0790E0EE24E39430
:10263000F12C97012A213B21232B09F19E837F82D4
:10264000CE20DF2091E0CD2809F490E098870E9409
:1026500073208160782F9A8789874E815F81688592
:102660008A850E947E13000F111FF801E858FE4F63
:1026700080819181E826F926F182E08206C09F5F81
:10268000EE0CFF1C9F30A9F6C5CF0E94840D0E945E
:10269000F10F0E94F323109177010E94481218173E
:1026A000C9F00E944812809377012A960FB6F894D9
:1026B000DEBF0FBECDBFDF91CF911F910F91FF9075
:1026C000EF90DF90CF90BF90AF909F908F907F90D2
:1026D0000C94E1032A960FB6F894DEBF0FBECDBF6F
:1026E000DF91CF911F910F91FF90EF90DF90CF90EE
:1026F000BF90AF909F908F907F900895CF93DF937E
:10270000CDB7DEB72B970FB6F894DEBF0FBECDBFA7
:102710004F83588769877A878B87DE01119686E019
:10272000FD0111928A95E9F785E0FE013796019047
:102730000D928A95E1F749815A816B817C818D8167
:102740009E810E94CB1A2B960FB6F894DEBF0FBE67
:10275000CDBFDF91CF910895FC01808191810E94CE
:10276000971D0895882309F41AC18238C1F40E9484
:10277000481281FD14C169E380911001909111010B
:102780000E94A51F0E94221E2FEF81EE94E021508F
:1027900080409040E1F700C0000069E319C0833831
:1027A000F9F40E94481280FDFAC063E5809110019F
:1027B000909111010E94A51F0E94221E2FEF81EE11
:1027C00094E0215080409040E1F700C0000063E5B4
:1027D00080911001909111010E94B01F0C94221E53
:1027E0008438C1F40E94481282FDD9C067E4809108
:1027F0001001909111010E94A51F0E94221E2FEF2F
:1028000081EE94E0215080409040E1F700C000004C
:1028100067E4DECF9CEF980F913A40F4682F8091E7
:102820001001909111010E94A51FD8CF90E2980F3E
:10283000983050F4877091E001C0990F8A95EAF7BB
:10284000892F0E94D91DCACF9BE5980F933070F451
:10285000853A29F0863A31F083E890E005C081E8B6
:1028600090E002C082E890E00C947C1298E5980F0A
:10287000973108F08EC0883A09F445C0893A09F4C6
:1028800045C08A3A09F445C08B3A09F445C08C3AF0
:1028900009F445C08B3B09F445C08C3B09F445C0A5
:1028A0008D3A09F445C0803B09F445C08E3A09F4DD
:1028B00045C08F3A09F445C0813B09F445C0823BCD
:1028C00009F445C0833B09F445C0843B09F445C085
:1028D000853B09F445C0863B09F445C0873B09F4B4
:1028E00045C0883B09F445C0893B09F445C08D3B90
:1028F00009F445C08E3B09F445C08A3B09F445C044
:1029000080E090E044C082EE90E041C089EE90E02B
:102910003EC08AEE90E03BC085EB90E038C086EB8D
:1029200090E035C083EB90E032C084EB90E02FC0A4
:1029300087EB90E02CC08CEC90E029C08DEC90E00F
:1029400026C083E891E023C08AE891E020C082E9B4
:1029500091E01DC084E991E01AC081E292E017C0C5
:1029600083E292E014C084E292E011C085E292E03A
:102970000EC086E292E00BC087E292E008C08FE6CC
:1029800090E005C080E790E002C08AE292E00C94FB
:102990009212803F20F00E94FB220C94E8230895BD
:1029A000882309F464C0823879F40E94481281FFB8
:1029B0005EC069E380911001909111010E94A51FF2
:1029C0000E94221E69E310C08338B1F40E944812AD
:1029D00080FF4DC063E580911001909111010E942C
:1029E000A51F0E94221E63E58091100190911101A4
:1029F0000E94B01F0C94221E843879F40E94481261
:102A000082FF35C067E480911001909111010E940E
:102A1000A51F0E94221E67E4E7CF9CEF980F913A12
:102A200010F4682FE1CF90E2980F983050F487703F
:102A300091E001C0990F8A95EAF7892F0E94DF1D66
:102A4000D9CF9BE5980F933020F480E090E00C9470
:102A50007C1298E5980F973120F480E090E00C9478
:102A60009212803F20F00E9463230C94E823089583
:102A7000CF93C82F0E94B213C93349F42FEF87EECA
:102A800093E0215080409040E1F700C000008C2F7F
:102A9000CF910C94D014882321F00E94D91D0C945E
:102AA000221E0895882321F00E94DF1D0C94221E0F
:102AB0000895BF92CF92DF92EF92FF920F931F93F0
:102AC000CF93DF937C01062FC72FFC011581129550
:102AD0001F70D281D1110E94F61D0E94CF1D882344
:102AE00079F0DD2369F080E2800F883048F082E0E1
:102AF0000E946D1E0E94CF1D91E0B82EB92601C024
:102B0000B12CCC2EC2948FE0C822D12CF601E6590C
:102B1000FF4F0C94F32B8C2F807FCF70882311F004
:102B2000C295C07FDD2399F0CC2309F4CFC180E2A8
:102B3000800F883010F0011104C08C2F0E94D91D25
:102B400003C08C2F0E94E91D0E94221EBFC1802F4E
:102B50000E94D014CC2309F402C280E2800F883096
:102B600010F0011104C08C2F0E94DF1D03C08C2FB8
:102B70000E94EF1D0E94221EF2C18C2F807FCF7019
:102B8000803211F0C295C07F002319F00130C9F0E6
:102B900022C0DD2371F0112341F0113031F40E9485
:102BA000091E8C2B0E940F1EDAC10E94091E8C2B5D
:102BB0001DC0112319F0113009F4D1C10E94181E53
:102BC00025C0DD2321F0163008F0C9C10EC0153034
:102BD00008F0C5C11BC0DD2361F0112331F0F701FE
:102BE000858180FF73C18F7085838C2F0E944B1568
:102BF000B6C1112359F0093309F079C1FFEF27EE6F
:102C000083E0F15020408040E1F76FC18C2F0E949B
:102C10005215A5C18C2F86958695837090E00097FC
:102C200019F0019761F09BC1DD2321F0802F9C2FCB
:102C3000937002C080E090E00E947C129BC1DD2373
:102C400021F0802F9C2F937002C080E090E00E94C2
:102C5000921290C1DD23F9F0053F51F0063F71F06B
:102C6000043FA9F4809195029091960281600BC077
:102C70008091950290919602826005C080919502A4
:102C80009091960284609093960280939502802F93
:102C90000E94FB221EC0053F51F0063F71F0043F29
:102CA000A9F480919502909196028E7F0BC080913D
:102CB0009502909196028D7F05C08091950290912A
:102CC00096028B7F9093960280939502802F0E94AC
:102CD00063230E94E8234EC18C2F837009F049C002
:102CE000D11144C1402F429546954770440F440F7F
:102CF000602F6F70862F90E0A0E0B0E0042E04C03B
:102D0000880F991FAA1FBB1F0A94D2F704FF10C097
:102D10000FE010E020E030E004C0000F111F221F80
:102D2000331F4A95D2F7009510952095309503C032
:102D300000E010E09801C695C695C370D0E0BC01D4
:102D4000CD01602B712B822B932BC230D10559F012
:102D5000C330D10559F0219719F00E94101C06C10B
:102D60000E94FE1B03C10E94221C00C10E94FC1B8A
:102D7000FDC0DD2319F08C2F817001C0869588235A
:102D800009F4F4C0402F429546954770440F440F14
:102D9000602F6F70862F90E0A0E0B0E0042E04C09A
:102DA000880F991FAA1FBB1F0A94D2F704FF10C0F7
:102DB0000FE010E020E030E004C0000F111F221FE0
:102DC000331F4A95D2F7009510952095309503C092
:102DD00000E010E09801C695C695C370D0E0BC0134
:102DE000CD01602B712B822B932BC230D10559F072
:102DF000C330D10559F0219719F00E94D61CB6C0F6
:102E00000E94C41CB3C00E94E81CB0C00E94371CC2
:102E1000ADC0CF70DD2339F08C2F0E945D1C802F58
:102E20000E944B15A3C0802F0E9452158C2F0E9428
:102E30007E1C9CC0023F01F128F4003F41F0013F9D
:102E4000A1F040C0033FF9F0043F39F13BC0DD235E
:102E500041F0153008F083C08C2F8F710E94A31CA5
:102E60007EC0163008F07BC0F7CFDD2339F08C2F01
:102E70008F710E945D1C73C0DD23C9F38C2F8F718D
:102E80000E947E1C6CC0DD2329F08C2F8F710E9464
:102E9000481C65C00E94431C62C0DD2349F0CF710D
:102EA0008C2F0E945D1C63E08C2F0E94581E57C01F
:102EB00081E00E946D1E123008F451C082E00E9431
:102EC0006D1E4DC0DD2331F0112389F2802F0E9449
:102ED000B21345C0112391F2093349F49FEFE7EE95
:102EE000F3E09150E040F040E1F700C00000802F97
:102EF0000E94D01434C04C2F4F70602FC7010E9425
:102F00003C040E946F1B36C0D11134C0CF70D0E09A
:102F1000C230D10599F03CF4209769F02197F9F47B
:102F20000E94EE0E27C0C430D10571F054F02597F1
:102F3000B1F480E00AC00E94CB0E1CC00E94350F85
:102F400019C00E943C0F16C085E00E947E0F12C07F
:102F50004C2F4F70602FC7010E943F040BC028E028
:102F6000C21AD10884E0C816D10420F40E94481285
:102F70000E94E103BB20D1F00E94CB1D80FD16C052
:102F8000F70112820E94C51D0E945D1CC7010E94AC
:102F9000E0170E94C51DDF91CF911F910F91FF9007
:102FA000EF90DF90CF90BF900C947E1CDF91CF917B
:102FB0001F910F91FF90EF90DF90CF90BF900895F9
:102FC0000F931F93CF93DF93EC01888199812B811D
:102FD0003C81232BB9F09F3F11F48F3F99F0CE0134
:102FE0000E94FA03882371F0688179818A810E94A6
:102FF000A21D8C010E94FA1C0E94FB1BB801CE018D
:103000000E945915DF91CF911F910F9108950E9451
:10301000F61D0E94061E0E94221E0E948E240E94FF
:10302000E82380E090E00E947C1280E090E00C9425
:10303000921280911001909111010E94BB1F0C947B
:1030400007180E94E61D0C941918E92FE295EF70FD
:10305000F0E03297EE30F105B0F4E658FF4F0C94F3
:10306000F32B803F91F018F4883E68F40EC0843F43
:1030700051F40BC0883E48F0813F29F406C093FB11
:10308000882780F9089580E0089581E008950E94DE
:10309000971D0E9425180895CF93DF9300D000D08C
:1030A0001F92CDB7DEB70F900F900F900F900F903B
:1030B000DF91CF910895CF93DF9300D000D000D05F
:1030C000CDB7DEB726960FB6F894DEBF0FBECDBFE4
:1030D000DF91CF9108951F93CF93DF93C091830128
:1030E00016E080918401C81799F0D0E01C9FF00190
:1030F0001D9FF00D1124EB57FE4F408151816281DD
:103100007381848195810E945B182196C770E9CFF5
:10311000DF91CF911F9108954091B5015091B60173
:103120006091B7017091B8018091B9019091BA0195
:103130000C945B188091BA0182958F7009F054C08D
:103140008091B701882309F44FC080918301A09139
:1031500084016091B5017091B6014091B801509120
:10316000B901B6E08A1709F43FC090E04115510556
:10317000C1F17F3F11F46F3FA1F1B89FF001B99FFA
:10318000F00D1124EB57FE4F218172132AC02081CC
:10319000621327C02281211124C023813481241786
:1031A000350710F421503109241B350B283C31051B
:1031B000C0F42091BA012F7020612093BA0126E05B
:1031C000289FF001299FF00D1124E657FE4F8081C2
:1031D0008F708061808385EB91E00E94E0170C94F2
:1031E0006B1801968770BECF0895CF92DF92EF9251
:1031F000FF920F931F93CF93DF93CDB7DEB7629704
:103200000FB6F894DEBF0FBECDBF8C0185E0F8018C
:10321000DE011D9601900D928A95E1F7D8014C913F
:1032200011965C91119712966C9112971396CD900E
:10323000DC9014973091B5017091B6018091B8017E
:103240009091B901009709F46BC17F3F19F43F3F9A
:1032500009F466C1E090B701EE2009F4C0C02091E6
:10326000BA01C816D90628F0F601E81BF90BCF0100
:1032700004C0809590958C0D9D1DFF24F394883C8F
:10328000910578F0F12C207F09F0C6C07C2DD98AF9
:10329000C88A89890E944C1885EB91E00E94E0174A
:1032A000B1C0822F807F09F046C0751314C034135B
:1032B00012C0611110C02F7020612093BA010E94CA
:1032C0008C1885EB91E00E94E0178091BA01D8013B
:1032D00015968C932EC0CD2819F15F3F11F44F3F06
:1032E000F9F0F62E61111CC08091830120918401B8
:1032F00036E0821709F45AC090E0389FF001399FF8
:10330000F00D1124EB57FE4F7181571306C07081E9
:10331000471303C07281711103C001968770E9CF12
:10332000F62E662309F427C18091BA01816080934B
:10333000BA01F12C20C1751308C0341306C0611105
:1033400004C08091BA01D801C3C04D875E878D85C6
:103350009E856A8B0E9447186A898823E1F166235B
:10336000D1F12091BA01822F82958F7090E002975F
:1033700074F08091B5019091B60198878F8319867A
:10338000DB86CA862C87CE0107960E94E01786E06E
:10339000F801A5EBB1E001900D928A95E1F70E944A
:1033A0009A180E948C18FF24F394E5C04D875E871D
:1033B0008D859E850E94971D292F22952F7030E0C4
:1033C000223031050CF0CBC09F7009F0C5C0805E83
:1033D000883008F4D0C0C8010E94E017E4CFC816B6
:1033E000D90608F453C0F601E81BF90BCF01883C5D
:1033F000910508F450C0F12C7C2DD98AC88A89899E
:103400000E944C18E5EBF1E086E0DF011D928A9501
:10341000E9F70E948C18AFC0751314C0341312C0A2
:10342000611110C08091BA01F8018583C8010E9422
:10343000E01786E0E5EBF1E0DF011D928A95E9F700
:10344000FE2C99C04D875E878D859E856A8B0E9474
:1034500047186A89882309F4BECF662309F4BBCFD5
:103460002091BA01822F82958F7090E002970CF420
:103470008ECF8091B5019091B6019A8389831B828A
:10348000DD82CC822E83CE0101967FCF80959095F0
:103490008C0D9D1DACCFF62E662309F49CCF7513C1
:1034A0002EC034132CC02091BA0120FD1FC0822FE2
:1034B00082958F70D9F0D80115962C9315978F307F
:1034C00049F08F5F982F9295907F822F8F70892B74
:1034D00015968C93C8010E94E01786E0F801A5EBD1
:1034E000B1E001900D928A95E1F793CF86E0F80163
:1034F000A5EBB1E001900D928A95E1F73CC04D87B4
:103500005E878D859E850E944718811140CF8091EE
:10351000BA0181608093BA01C8010E94E0172BC0F4
:10352000662309F458CF4D875E878D859E850E945E
:103530004718F82E882309F44ECF86E0F801A5EB52
:10354000B1E001900D928A95E1F785EB91E00E9440
:10355000AC130E949A185DCF811139CF0CC0243072
:1035600031050CF038CF9F7009F431CFF801958107
:10357000907F09F02CCF8F2D62960FB6F894DEBFA6
:103580000FBECDBFDF91CF911F910F91FF90EF90B4
:10359000DF90CF9008951F93CF93DF93CDB7DEB721
:1035A0002C970FB6F894DEBF0FBECDBF4F83588760
:1035B00069877A878B879C87CE0107960E94F518CA
:1035C000882369F08F8198852A853B85232BF1F12B
:1035D0009F3F09F063C08F3F09F060C037C086E0AD
:1035E000FE013796DE01119601900D928A95E1F762
:1035F0006F817885EA85FB85309741F17F3F11F433
:103600006F3F21F12091840130E0C901019687705C
:1036100099274091830150E08417950709F447C02A
:1036200069837A83FD83EC8396E0929FD001939F18
:10363000B00D1124AB57BE4FFE01319601900D9293
:103640009A95E1F7809384010E946B1816E08091AF
:103650008301909184018917C1F1189FC001112441
:103660008B579E4F0E94F518882379F1E0918301D2
:103670001E9FF0011124EB57FE4F40815181628162
:103680007381848195810E945B188091830190E011
:1036900001968770992780938301D9CF4F815885F0
:1036A00069857A858B859C850E945B18CFCF0E94A7
:1036B00021181092840110928301E5EBF1E086E07D
:1036C000DF011D928A95E9F7C1CF2C960FB6F894C9
:1036D000DEBF0FBECDBFDF91CF911F910895EF9256
:1036E000FF920F931F93CF93DF938C01892B09F4E3
:1036F0006CC0F12CEE24E394E8012196F80184914A
:10370000843740F4843008F051C0813081F0823039
:1037100019F15BC0853709F444C0A8F19CE7980F04
:10372000903708F052C08F770E94D01441C00E5FCE
:103730001F4FFE01C49180E28C0F883048F4C7709F
:103740008E2D01C0880FCA95EAF70E94F91D14C09A
:103750008C2F0E94B2132DC00E5F1F4FFE01C4912B
:1037600080E28C0F883058F4C7708E2D01C0880F0E
:10377000CA95EAF70E94FF1D0E94221E1AC08C2FD4
:103780000E94D01416C00E5F1F4FFE01C491CC23BF
:1037900081F08FE99FE00197F1F700C00000C15070
:1037A000F6CF0E5F1F4FFE01F49003C00E94B213CC
:1037B0008E018F2D882309F49FCFEFE9FFE0319729
:1037C000F1F700C000008150F5CFDF91CF911F913C
:1037D0000F91FF90EF90089508950C94EC1B0E94B8
:1037E000ED1B6093F1017093F2018093F3019093CC
:1037F000F4010C94071808950C94EF1B0F931F937A
:103800000091F1011091F2012091F3013091F40146
:10381000602B712B822B932B1F910F910C94EF1B1C
:103820000F931F930091F1011091F2012091F30188
:103830003091F40160237123822393231F910F9110
:103840000C94EF1B0F931F930091F1011091F20163
:103850002091F3013091F40160277127822793278B
:103860001F910F910C94EF1B08950C94341C0E942F
:10387000351C6093ED017093EE018093EF019093FE
:10388000F0010C94071860E070E0CB010C94371C39
:103890000F931F9341E050E060E070E08A019B01CC
:1038A00004C0000F111F221F331F8A95D2F7C901D0
:1038B000B8011F910F910C94371C0F931F9341E097
:1038C00050E060E070E004C0440F551F661F771F92
:1038D0008A95D2F78091ED019091EE01A091EF01D0
:1038E000B091F0018A019B01082B192B2A2B3B2B4D
:1038F000C901B8011F910F910C94371C0F931F93AE
:1039000041E050E060E070E004C0440F551F661FC6
:10391000771F8A95D2F74095509560957095809164
:10392000ED019091EE01A091EF01B091F0018A01BB
:103930009B01082319232A233B23C901B8011F91A6
:103940000F910C94371C0F931F9341E050E060E0FF
:1039500070E004C0440F551F661F771F8A95D2F789
:103960008091ED019091EE01A091EF01B091F001F5
:103970008A019B01082719272A273B27C901B8017B
:103980001F910F910C94371C0F931F930091ED0121
:103990001091EE012091EF013091F001602B712B1D
:1039A000822B932B1F910F910C94371C0F931F9315
:1039B0000091ED011091EE012091EF013091F001A5
:1039C00060237123822393231F910F910C94371C42
:1039D0000F931F930091ED011091EE012091EF01E3
:1039E0003091F00160277127822793271F910F9153
:1039F0000C94371C08952FE0929F800D1124A82F5E
:103A0000A695A695A695877051E001C0550F8A9599
:103A1000EAF785E0A89FD001112420E030E070E0B3
:103A2000F901EA0FFB1FE554FE4F4081CB01022E46
:103A300002C0969587950A94E2F78170992781953F
:103A400084278523842780832F5F3F4F25303105CE
:103A500039F708952FE0929F800D1124682F669505
:103A600066956695982F977085E0689FB001112440
:103A700040E050E080E0FA01E60FF71FE554FE4F0A
:103A8000208130E0092E02C0369527950A94E2F78E
:103A900021703327042E01C0220F0A94EAF7822BEB
:103AA0004F5F5F4F4530510531F70895BF92CF9278
:103AB000DF92EF92FF920F931F93CF93DF938C01CE
:103AC000C090F101D090F201E090F301F090F40188
:103AD0008091ED019091EE01A091EF01B091F00184
:103AE000C82AD92AEA2AFB2ACFE1D0E0D701C601A9
:103AF0000C2E04C0B695A795979587950A94D2F792
:103B000080FF07C0BC2EB8018C2F0E945A04019779
:103B100019F4219758F7B12C8B2DDF91CF911F917C
:103B20000F91FF90EF90DF90CF90BF900895CF93CB
:103B3000DF93EC010E94561DBE010E945A04DF91E2
:103B4000CF9108951F93CF93DF93EB019091820162
:103B5000992321F0CB010E94971D13C0882349F0BF
:103B6000CB010E94561D182F682FCE010E94FB1C0E
:103B700004C0CB010E942A1D182FBE01812F0E9474
:103B80005A04DF91CF911F9108958091F501859599
:103B90008595859508958091F50187700895909198
:103BA000F501977081E009F480E008958091190291
:103BB000089590911902892B809319020895809598
:103BC0009091190289238093190208951092190285
:103BD000089590911802892B80931802089580957A
:103BE0009091180289238093180208951092180268
:103BF000089590911702892B80931702089580955C
:103C0000909117028923809317020895109217024A
:103C100008958091F601089508950C940C1E9091DA
:103C2000F601981721F08093F6010C940D1E08956B
:103C30008091F601882329F01092F60180E00C941F
:103C40000D1E0895E0911001F0911101809119026B
:103C50008083E0911001F091110190818091180210
:103C6000892B8083E0911001F09111019081809166
:103C70001702892B80838091F601882381F0E091DF
:103C80001001F09111019081892B808380911001A6
:103C9000909111010E94401F81110E94181E809175
:103CA0001001909111010C94541208950C94551E1A
:103CB00098E0899F90011124262B2093F5010E9402
:103CC0005D1C8091F5018595859585950C94561E12
:103CD0001092F50180E00C94561E2091F50180951C
:103CE00082238093F501982F977079F430E0482F64
:103CF000082E000C550B2417350739F0859585954E
:103D000085950E947E1C0C94681E089580E090E0CA
:103D10000E942E2C21E08C3E9E4F09F020E0822F45
:103D2000089582E090E00C94202C682F82E090E0CF
:103D30000C94342C83E090E00C94202C682F83E0CA
:103D400090E00C94342CCF9384E090E00E94202CDF
:103D5000C82F81E290E00E94202C2C2F30E0A90196
:103D6000582BCA01CF910895CF93C92F682F84E0B3
:103D700090E00E94342C6C2F81E290E0CF910C9463
:103D8000342C86E090E00C94202C682F86E090E0A4
:103D90000C94342CAB01BC018FE090E00C94462CC9
:103DA000AB01BC0183E190E00C94462C60E070E034
:103DB000CB010C94D01E60E070E0CB010E94CA1EC3
:103DC0000C94D61E6CEE7EEF80E090E00E94522CA8
:103DD00060E082E090E00E94342C60E083E090E0BC
:103DE0000E94342C1092F1011092F2011092F30112
:103DF0001092F40160E084E090E00E94342C60E0D6
:103E000081E290E00E94342C60E085E090E00E9426
:103E1000342C60E086E090E00E94342C6FEF87E065
:103E200090E00E94342C40E050E0BA0188E090E03D
:103E30000E94462C60E08DE090E00E94342C40E02F
:103E400050E0BA0188E190E00E94462C60E087E1F2
:103E500090E00E94342C40E050E0BA018CE190E008
:103E60000E94462C60E080E290E00E94342C0C948A
:103E7000DB1E0C94E21E682F8EE090E00C94342C34
:103E8000FC01329680912201882331F080919B02BF
:103E900087FF02C09EE101C096E080E0915028F0CB
:103EA00021912223D9F38F5FF9CF08959C01FC0162
:103EB00032969FEF80E04191461789F09F3F19F4B9
:103EC000411101C0982F8F5F8630A9F79F3F39F0CD
:103ED000F901E90FF11D97FDFA95628308950895A0
:103EE000FC01329608962081261301C0108231967B
:103EF000E817F907C1F70895262F269526952695E8
:103F00002E3168F4FC01E20FF11D677021E030E012
:103F100001C0220F6A95EAF78281282B2283089537
:103F2000262F2695269526952E3170F4FC01E20F5A
:103F3000F11D677021E030E001C0220F6A95EAF7B9
:103F40002095828128232283089520912201222313
:103F500029F020919B0227FD0C947C1F0C94561F86
:103F600020912201222329F020919B0227FD0C940D
:103F7000901F0C94701F20912201FC013296222385
:103F800031F080919B0287FF02C08EE101C086E084
:103F9000DF011D928A95E9F7089508950C94CD1FCD
:103FA0000E94CE1F8091A102843009F43CC010927F
:103FB0001B0220E488E190E00FB6F894A895809366
:103FC00060000FBE2093600080E00E94950F80E0AB
:103FD0000E94E1030E94810D80911C0281110AC0A0
:103FE00081E080931C0280915F02817080931D02AA
:103FF0000E94B40C0E94CE1F83B7817F846083BF70
:1040000083B7816083BF7894889583B78E7F83BFA1
:104010000FB6F894A8958091600088618093600045
:10402000109260000FBE089508950895CF930E94E6
:1040300014200E9479070E941520C0E08C2F0E9456
:104040002407892B29F4CF5FC530C1F780E001C078
:1040500081E0CF91089508950C942B200E9421189F
:104060000E94AA0E0E9448120E94E10310921C02B4
:1040700080911D0281110E94790D0E94C60C0C9442
:104080002C201F920F920FB60F9211248F939F93A3
:10409000AF93BF9380911B02811113C0809197024F
:1040A00090919802A0919902B0919A024196A11D17
:1040B000B11D8093970290939802A0939902B093B8
:1040C0009A02BF91AF919F918F910F900FBE0F9069
:1040D0001F90189582E084BD93E095BD9AEF97BD3F
:1040E00080936E0008952FB7F89480919702909175
:1040F0009802A0919902B0919A022FBF0895CF9291
:10410000DF92EF92FF920F931F932FB7F894409195
:104110009702509198026091990270919A022FBF74
:104120006A017B01EE24FF248C0120E030E0C01600
:10413000D106E206F30610F4415051099A01281BFA
:10414000390BC9011F910F91FF90EF90DF90CF9035
:10415000089578941F920F920FB60F9211248F93A7
:104160009F93AF93BF938091970290919802A091F3
:104170009902B0919A020196A11DB11D80939702F8
:1041800090939802A0939902B0939A02BF91AF9135
:104190009F918F910F900FBE0F901F90189581E007
:1041A0008093E00080E28093D8001092C9008FE1F4
:1041B0009EE40197F1F700C0000087E090EBDC017E
:1041C0008093AA029093AB02A093AC02B093AD028D
:1041D0009CE088E10FB6F894A895809360000FBE2C
:1041E00090936000FFCFAF92BF92CF92DF92EF9299
:1041F000FF920F931F93CF93C0E0CC24C394D12C94
:10420000E82EF12C8C2F0E9424075C0100E010E0C6
:104210009601002E02C0220F331F0A94E2F72A21D2
:104220003B21232B31F40F5F1F4F0F30110581F716
:104230000AC0602F7C2F80E00E944004E816F90637
:1042400091F781E004C0CF5FC530E1F680E0CF9107
:104250001F910F91FF90EF90DF90CF90BF90AF90A4
:104260000895CF93C82F8CE20E94F320882321F079
:104270008C2FCF910C94F32080E0CF910895CF93B1
:104280000E94861E811102C00E94391FC5E6C150DE
:1042900049F00E9479078FE39CE90197F1F700C08C
:1042A0000000F5CF89E20E943121811120C18AE20C
:1042B0000E94312181110E94391F85E00E94312125
:1042C00081110E94CF200E94911E80931A0287E0E4
:1042D0000E9431218823A9F18BE10E94312188239A
:1042E00051F080911A0281FB222720F991E0922758
:1042F00090FB81F90EC08EE00E943121882361F08D
:1043000080911A0282FB222720F991E0922790FBEC
:1043100082F980931A0215C080E10E9431219091A8
:104320001A02882341F093FB222720F981E082279B
:1043300080FB93F904C0892F809580FB90F99093BE
:104340001A0280911A020E94951E0E94A31E909349
:104350009C0280939B0280EE0E943121882341F0D1
:1043600080919B02982F909590FB80F980939B02FF
:1043700089E30E943121882359F080919B0281FBBF
:10438000222720F991E0922790FB81F980939B02EC
:1043900082EE0E943121882359F080919B0282FB9A
:1043A000222720F991E0922790FB82F980939B02CB
:1043B00086EE0E943121882359F080919B0283FB75
:1043C000222720F991E0922790FB83F980939B02AA
:1043D00083EE0E943121882359F080919B0284FB57
:1043E000222720F991E0922790FB84F980939B0289
:1043F00085E30E943121882359F080919B0285FB3F
:10440000222720F991E0922790FB85F980939B0267
:1044100081E30E943121882359F080919B0286FB21
:10442000222720F991E0922790FB86F980939B0246
:1044300081E10E943121882359F080919B0287FB02
:10444000222720F991E0922790FB87F980939B0225
:1044500080919B0290919C020E94B41E87E20E9470
:104460003121C82F8EE10E9431218111C2608FE17C
:104470000E9431218111C46080E20E9431218111AA
:10448000C86081E20E9431218111C06182E20E94F4
:1044900031218111C06283E20E9431218111C06407
:1044A00084E20E943121882311F0C06802C0CC232D
:1044B00029F08C2F0E949E1E6C2F03C00E949A1E12
:1044C000682F70E080E090E00E94FC1B8FE00E946B
:1044D0003121882319F081E00E943B1F85E10E9471
:1044E0003121882321F080E0CF910C943B1FCF91A4
:1044F00008958091210280FF0BC06091150185E035
:10450000689FB001112475956795759567952BC0C7
:1045100081FF09C06091150185E0689FB0011124F9
:104520007595679520C082FF07C06091150185E0F1
:10453000689FB001112417C0909120029923D1F0F7
:1045400060911401961788F72091150185E0289F46
:1045500090011124929FA001939F500D112470E0AF
:10456000CA010E94BD2B6038710540F461157105C8
:1045700039F002C065E070E0862F08958FE7089556
:1045800081E008958091210280FF08C060911301AD
:1045900070E0759567957595679521C081FF06C098
:1045A0006091130170E07595679519C082FF04C092
:1045B0006091130170E010C0909120029923C1F026
:1045C000609112019617A0F780911301899FC00195
:1045D000112470E00E94BD2B6038710528F461152C
:1045E000710521F0862F08958FE7089581E00895E1
:1045F00061E070E0F4CF803F21F40E947922819540
:1046000004C0813F29F40E947922809325020895F5
:10461000823F21F40E947922819504C0833F29F4CE
:104620000E947922809324020895893F19F40E9400
:10463000C22205C08A3F31F40E94C2228195809334
:10464000260208958B3F21F40E94C222819504C066
:104650008C3F29F40E94C222809327020895843F50
:1046600021F480912302816017C0853F21F480915D
:104670002302826011C0863F21F48091230284606E
:104680000BC0873F21F480912302886005C0883FDA
:1046900031F48091230280618093230208958D3F3D
:1046A00021F48091210281600BC08E3F21F4809122
:1046B0002102826005C08F3F29F48091210284602D
:1046C000809321020895803F39F48091250287FF6D
:1046D0006CC01092250269C0813F29F480912502A7
:1046E0001816BCF362C090912402823F29F497FF10
:1046F0005CC01092240259C0833F19F41916CCF300
:1047000054C0893F41F48091260218160CF04DC028
:10471000109226024AC08A3F29F48091260287FF20
:1047200044C0F6CF8B3F39F48091270287FF3DC00C
:10473000109227023AC08C3F29F480912702181664
:10474000BCF333C0843F21F4809123028E7F17C0D5
:10475000853F21F4809123028D7F11C0863F21F493
:10476000809123028B7F0BC0873F21F4809123022D
:10477000877F05C0883F31F4809123028F7E80932C
:10478000230213C08D3F21F4809121028E7F0BC044
:104790008E3F21F4809121028D7F05C08F3F29F447
:1047A000809121028B7F80932102809124028111CC
:1047B0000EC08091250281110AC0809126028111CC
:1047C00006C080912702811102C010922002089534
:1047D00082E292E00E946E120E94732090931F0268
:1047E00080931E0208951F93CF93DF9380911E0242
:1047F00090911F020E947F20AC019091200299238A
:1048000021F02091160130E006C0209117018AE0C6
:10481000289F900111244217530708F47BC0809110
:104820002402C0912502D091260210912702811105
:1048300007C0C1116BC0D11169C0111167C06AC036
:104840009F3F19F09F5F90932002181624F40E9456
:104850007922809324028091240287FF05C00E9460
:1048600079228195809324021C1624F40E947922D7
:10487000809325028091250287FF05C00E9479223E
:10488000819580932502309124023323E1F0209119
:1048900025022223C1F045EB3403C0011124892FE6
:1048A000990F990B009709F481E08093240235EB6E
:1048B0002303C0011124892F990F990B009709F444
:1048C00081E0809325021D1624F40E94C222809369
:1048D00026028091260287FF05C00E94C222819590
:1048E00080932602111624F40E94C222809327028C
:1048F0008091270287FF05C00E94C2228195809384
:104900002702DF91CF911F910C94E8239F3F09F07C
:1049100099CFA1CFDF91CF911F910895E2E2F2E00C
:1049200086E0DF011D928A95E9F71092200210922D
:1049300021020895809148020895CF93DF9300D01B
:104940001F92CDB7DEB79091A102943019F58983FB
:104950007B836A8382E08093E9008FEF9091E80087
:10496000815095FD06C095ED9A95F1F700008111F3
:10497000F5CF8091E80085FF0DC040E050E063E096
:1049800070E0CE0101960E94FD268091E8008E77AE
:104990008093E8000F900F900F90DF91CF910895D2
:1049A000CF93DF93EC010E94E026823011F0843037
:1049B00031F4BE0184E0DF91CF910C949D24DF910E
:1049C000CF910895BC016058710983E00C949D2437
:1049D000CF93DF93EC010E94E026823011F0843007
:1049E000F9F482E08093E9009FEF8091E800915014
:1049F00085FD06C085ED8A95F1F700009111F5CF90
:104A00008091E80085FF0CC040E050E066E070E077
:104A1000CE010E94FD268091E8008E778093E80009
:104A2000DF91CF910895CF93DF93EC010E94E026B0
:104A3000823011F08430D9F580912201882339F039
:104A400080919B0287FF03C060E282E002C068E0C1
:104A500081E08093E9008FEF9091E800815095FD0F
:104A600006C095ED9A95F1F700008111F5CF809180
:104A7000E80085FF1CC080912201811105C040E043
:104A800050E068E070E003C070E040E050E0CE012C
:104A90000E94FD268091E8008E778093E80080E2F6
:104AA000FE01A8E2B2E001900D928A95E1F7DF9154
:104AB000CF9108958091A002811109C00E9492288F
:104AC0000E94EF288091E20084608093E2000895C4
:104AD0001092A0020895089508950C942E2042E0AB
:104AE00061EC81E00E940C2842E261EC82E00C94CF
:104AF0000C288091A302833009F460C030F4813027
:104B000071F0823009F499C008958A3009F485C0A3
:104B10008B3009F46BC0893009F0A7C020C08091A8
:104B2000A202813A09F0A1C08091E800877F8093BA
:104B3000E8008091A6029091A702892B21F460E2FF
:104B400088E292E003C060E080E090E070E00E94C4
:104B500048278091E8008B778093E8000895809142
:104B6000A202813209F081C08091A6029091A70231
:104B7000029708F07AC08091E800877F8093E80070
:104B80008091E80082FD05C08091A1028111F8CFDB
:104B90006CC02091F3008091F20090E0922B02977C
:104BA00029F48091F1008B7F813021F48091F10014
:104BB000809348028091E8008B7753C08091A202D5
:104BC000813A09F052C08091A6029091A702892BE8
:104BD00009F04BC08091E800877F8093E8008091C6
:104BE000E80080FFFCCF8091220136C08091A202B4
:104BF0008132D9F58091A6029091A702892BA9F55F
:104C00008091E800877F8093E8000E94412880918E
:104C1000A402809322010C9421188091A202813277
:104C200021F58091E800877F8093E8000E94412869
:104C30008091A5028093490208958091A202813A51
:104C4000A1F48091E800877F8093E8008091E800DC
:104C500080FFFCCF809149028093F1008091E800B1
:104C60008E778093E8000C944128089584B7877F5D
:104C700084BF0FB6F894A8958091600088618093F6
:104C80006000109260000FBE90E080E80FB6F894CC
:104C900080936100909361000FBE0E94B6120E9443
:104CA00092280E94EF288091E20084608093E200C5
:104CB00078940E947E2B0E94BE1288E191E00E94AF
:104CC00043128091A102853069F40E94D01F809127
:104CD0009F028823B1F30E941620882391F30E943B
:104CE000E726EFCF0E94CA12ECCF0C947726292F2B
:104CF000332723303105C9F064F42130310581F0C8
:104D00002230310509F04CC08BE390E025E235E01C
:104D10004BC02132310521F12232310589F140C0E9
:104D200082E190E020E635E03FC09927813091058F
:104D300071F02CF4892BA1F5E1E2F5E00DC0823091
:104D4000910541F0039761F5EDEFF4E005C0EFE068
:104D5000F5E002C0E3E0F5E0849190E09F0124C01B
:104D60006115710541F061307105D1F489E090E081
:104D700020E535E019C089E090E027E335E014C074
:104D80006115710541F06130710551F480EC90E0DE
:104D900022E735E009C080E490E022E336E004C079
:104DA00080E090E020E030E0FA0131832083089534
:104DB0008091A102843011F081E0089582E008958D
:104DC00080914A02811102C00C94D826089580E196
:104DD00089BD82E189BD09B400FEFDCF8091D80074
:104DE0008F7D8093D8008091E00082608093E00006
:104DF0008091E00081FDFCCF0895CF92DF92EF9289
:104E0000FF920F931F93CF93DF93EC018B016A0105
:104E10000E946028811133C0C114D10439F0F60119
:104E200080819181081B190BC80FD91FE12CF12C2F
:104E30000115110519F18091E80085FD16C08091DA
:104E4000E8008E778093E800C114D10449F0F601A0
:104E500080819181E80EF91EF182E08285E00FC029
:104E60000E946028882321F30AC089918093F10071
:104E700001501109FFEFEF1AFF0ADACF80E0DF914E
:104E8000CF911F910F91FF90EF90DF90CF900895F9
:104E90002091A8023091A9022617370748F0611522
:104EA000710539F42091E8002E772093E80001C0C5
:104EB000B90140E061157105A9F12091A1022223F9
:104EC00009F443C0253009F442C02091E80023FDD5
:104ED00040C02091E80022FD32C02091E80020FF70
:104EE000E9CF4091F3002091F20030E0342BFC0137
:104EF000CF016115710559F02830310540F48191D9
:104F00008093F100615071092F5F3F4FF1CF41E075
:104F10002830310509F040E02091E8002E772093F9
:104F2000E800C8CF4111C9CF0AC08091A1028823EF
:104F300061F0853061F08091E80083FD0AC08091C6
:104F4000E80082FFF2CF80E0089582E0089583E0D8
:104F5000089581E008952091A8023091A9022617B2
:104F6000370748F06115710539F42091E8002E7774
:104F70002093E80001C0B901FC0120E06115710532
:104F800091F18091A102882309F440C0853009F491
:104F90003FC08091E80083FD3DC08091E80082FD24
:104FA0002FC08091E80080FFE9CF2091F30080912D
:104FB000F20090E0922B6115710559F0883091054F
:104FC00040F424912093F1003196615071090196CB
:104FD000F2CF21E0089709F020E08091E8008E7779
:104FE0008093E800CBCF2111CCCF0AC08091A102E1
:104FF000882361F0853061F08091E80083FD0AC06C
:105000008091E80082FFF2CF80E0089582E0089569
:1050100083E0089581E00895982F973058F5909394
:10502000E900981739F07091EC002091ED00509153
:10503000F00003C0242F762F50E021FF19C03091DB
:10504000EB003E7F3093EB003091ED003D7F3093DD
:10505000ED003091EB0031603093EB007093EC0089
:105060002093ED005093F0002091EE0027FF07C041
:105070009F5FD3CF8F708093E90081E0089580E037
:1050800008958091A20287FF11C08091E80082FDFF
:1050900005C08091A1028111F8CF11C08091E80074
:1050A0008B770BC08091A102882349F08091E800A2
:1050B00080FFF8CF8091E8008E778093E800089514
:1050C0002091E4003091E50095E64091EC00842FBA
:1050D000817040FF22C08091E80080FD1CC080915B
:1050E000A102882391F0853091F08091EB0085FD3D
:1050F00010C04091E4005091E5004217530729F396
:105100009A01915011F784E0089582E0089583E0B8
:10511000089581E0089580E008954091E80042FFFD
:10512000DECF08950E9400290E940829E0EEF0E0F9
:10513000808181608083E8EDF0E080818F778083DB
:1051400019BCA7EDB0E08C918E7F8C9380818F7E0F
:1051500080831092A00208950F931F93CF93DF9343
:105160000E9400290E940829C8EDD0E088818F772D
:10517000888388818068888388818F7D888319BC33
:105180001092A10210929D0210929F0210929E0214
:1051900000EE10E0F80180818B7F80838881816040
:1051A000888342E060E080E00E940C28E1EEF0E0BD
:1051B00080818E7F8083E2EEF0E080818160808359
:1051C000808188608083F80180818E7F80838881E0
:1051D00080618883DF91CF911F910F910895E8ED51
:1051E000F0E080818F7E8083E7EDF0E08081816058
:1051F000808384E082BF81E08093A0020C94AC287D
:10520000E8EDF0E080818E7F80831092E2000895C7
:105210001092DA001092E10008951F920F920FB6DB
:105220000F9211242F933F934F935F936F937F932C
:105230008F939F93AF93BF93EF93FF938091E10080
:1052400082FF0BC08091E20082FF07C08091E100E5
:105250008B7F8093E1000E947D2B8091DA0080FF9C
:105260001FC08091D80080FF1BC08091DA008E7F24
:105270008093DA008091D90080FF0DC080E189BD64
:1052800082E189BD09B400FEFDCF81E08093A102D7
:105290000E945A2505C019BC1092A1020E946825DF
:1052A0008091E10080FF19C08091E20080FF15C06D
:1052B0008091E2008E7F8093E2008091E200806125
:1052C0008093E2008091D80080628093D80019BC5E
:1052D00085E08093A1020E946C258091E10084FF0B
:1052E00030C08091E20084FF2CC080E189BD82E162
:1052F00089BD09B400FEFDCF8091D8008F7D8093D9
:10530000D8008091E1008F7E8093E1008091E200DF
:105310008F7E8093E2008091E20081608093E200C2
:1053200080919D02882311F084E007C08091E30002
:1053300087FD02C081E001C083E08093A1020E944A
:105340006D258091E10083FF29C08091E20083FFF9
:1053500025C08091E100877F8093E10082E0809307
:10536000A10210929D028091E1008E7F8093E10066
:105370008091E2008E7F8093E2008091E200806164
:105380008093E20042E060E080E00E940C2880917F
:10539000F00088608093F0000E946B25FF91EF91F0
:1053A000BF91AF919F918F917F916F915F914F913D
:1053B0003F912F910F900FBE0F901F9018951F9245
:1053C0000F920FB60F9211242F933F934F935F9339
:1053D0006F937F938F939F93AF93BF93CF93DF93FD
:1053E000EF93FF93C091E900CF708091EC00D82F2C
:1053F000D17080FDD0E81092E9008091F000877FA5
:105400008093F00078940E94232A1092E900809102
:10541000F00088608093F000CD2BCF70C093E9003E
:10542000FF91EF91DF91CF91BF91AF919F918F91BC
:105430007F916F915F914F913F912F910F900FBE90
:105440000F901F9018951F93CF93DF93CDB7DEB7C2
:10545000AA970FB6F894DEBF0FBECDBFE2EAF2E026
:1054600088E08E0F9091F10091938E13FBCF0E94F4
:1054700079258091E80083FF28C18091A202909154
:10548000A302492F50E04A30510508F01EC1FA012D
:10549000E857FF4F0C94F32B803821F0823809F045
:1054A00014C108C080919E0290919F02992389F0B7
:1054B00082600FC08091A6028F70873008F005C10E
:1054C0008093E9008091EB0085FB882780F910929A
:1054D000E9009091E800977F9093E8008093F100B5
:1054E0001092F100D0C0282F2D7F09F0EEC0882344
:1054F00019F0823061F0E9C08091A402813009F096
:10550000E4C0933009F080E080939F022EC0809128
:10551000A40281112AC08091A6028F702FEF280F5C
:10552000263008F0D2C08093E9002091EB0020FFE4
:105530001CC0933021F48091EB00806214C09091E4
:10554000EB0090619093EB0021E030E0A90102C0F4
:10555000440F551F8A95E2F74093EA001092EA0043
:105560008091EB0088608093EB001092E9008091BD
:10557000E800877F8093E8000E944128A6C081113F
:10558000A4C01091A4021F778091E3008078812B42
:105590008093E3008091E800877F8093E8000E9479
:1055A00041288091E80080FFFCCF8091E300806873
:1055B0008093E300111102C082E001C083E0809378
:1055C000A10283C08058823008F07FC08091A4027D
:1055D0009091A5028C3D53E0950779F583E08A838D
:1055E0008AE289834FB7F894DE01139620E03EE00B
:1055F00051E2E32FF0E050935700E49120FF03C005
:10560000E295EF703F5FEF708E2F90E0EA3010F080
:10561000C79601C0C0968D939D932F5F243149F7A3
:105620004FBF8091E800877F8093E8006AE270E0D6
:10563000CE0101960E94482715C06091A602709184
:10564000A702AE014F5F5F4F0E947526BC01892BF8
:10565000E1F19091E800977F9093E80089819A8129
:105660000E94AB278091E8008B778093E8002DC0E3
:10567000803859F58091E800877F8093E800809119
:105680009D028093F1008091E8008E7773CF8111A5
:105690001CC09091A4029230C0F48091E800877FF2
:1056A0008093E80090939D020E94412880919D0282
:1056B000811106C08091E30087FD02C081E001C036
:1056C00084E08093A1020E946F258091E80083FF0F
:1056D0000AC08091E800877F8093E8008091EB000A
:1056E00080628093EB00AA960FB6F894DEBF0FBEDF
:1056F000CDBFDF91CF911F9108950895CF938091F1
:10570000A1028823A1F0C091E900CF709091EC0034
:10571000892F817090FD80E8C82B1092E90080915C
:10572000E80083FD0E94232ACF70C093E900CF9147
:105730000895DB018F939F930E94082CBF91AF9136
:10574000A29F800D911DA39F900DB29F900D1124DB
:105750000895AA1BBB1B51E107C0AA1FBB1FA617B8
:10576000B70710F0A61BB70B881F991F5A95A9F70A
:1057700080959095BC01CD01089597FB072E16F4F6
:10578000009407D077FD09D00E94A92B07FC05D013
:105790003EF4909581959F4F0895709561957F4F48
:1057A0000895A1E21A2EAA1BBB1BFD010DC0AA1F62
:1057B000BB1FEE1FFF1FA217B307E407F50720F07A
:1057C000A21BB30BE40BF50B661F771F881F991FF5
:1057D0001A9469F760957095809590959B01AC013E
:1057E000BD01CF010895EE0FFF1F0590F491E02D4C
:1057F0000994A29FB001B39FC001A39F700D811DAA
:105800001124911DB29F700D811D1124911D0895C9
:105810000E94F92BA59F900DB49F900DA49F800D21
:10582000911D11240895FC014150504030F0019029
:105830000616D1F73197CF01089588279927089543
:10584000F999FECF92BD81BDF89A992780B5089548
:10585000A6E1B0E044E050E00C945A2CA8E1B0E09E
:1058600042E050E00C945A2C262FF999FECF92BDBD
:1058700081BDF89A019700B4021639F01FBA20BD15
:105880000FB6F894FA9AF99A0FBE08950396272F47
:105890000E94352C0E94342C252F0E94352C242F59
:1058A0000C94352C0196272F0E94352C0C94342C07
:1058B000DC01CB01FC01F999FECF06C0F2BDE1BDD0
:1058C000F89A319600B40D9241505040B8F70895BF
:0458D000F894FFCF7A
:1058D400010210101001191A1B1C1D1E1F20212269
:1058E400F7012808140A321E9A241325E824E22416
:1058F400D02401F0F1C66766379431303534979679
:1059040033F4909192939500010202020206060676
:105914000909090909090F0F0F0F0F0F151515189C
:0C59240019191919191919191919232436
:00000001FF
